{
    "contractName": "SoulStream",
    "abi": [
        {
            "anonymous": false,
            "inputs": [
                {
                    "indexed": true,
                    "internalType": "uint256",
                    "name": "streamId",
                    "type": "uint256"
                },
                {
                    "indexed": true,
                    "internalType": "address",
                    "name": "sender",
                    "type": "address"
                },
                {
                    "indexed": true,
                    "internalType": "address",
                    "name": "recipient",
                    "type": "address"
                },
                {
                    "indexed": false,
                    "internalType": "uint256",
                    "name": "senderBalance",
                    "type": "uint256"
                },
                {
                    "indexed": false,
                    "internalType": "uint256",
                    "name": "recipientBalance",
                    "type": "uint256"
                }
            ],
            "name": "CancelStream",
            "type": "event"
        },
        {
            "anonymous": false,
            "inputs": [
                {
                    "indexed": true,
                    "internalType": "uint256",
                    "name": "streamId",
                    "type": "uint256"
                },
                {
                    "indexed": true,
                    "internalType": "address",
                    "name": "sender",
                    "type": "address"
                },
                {
                    "indexed": true,
                    "internalType": "address",
                    "name": "recipient",
                    "type": "address"
                },
                {
                    "indexed": false,
                    "internalType": "uint256",
                    "name": "deposit",
                    "type": "uint256"
                },
                {
                    "indexed": false,
                    "internalType": "address",
                    "name": "soulAddress",
                    "type": "address"
                },
                {
                    "indexed": false,
                    "internalType": "uint256",
                    "name": "startTime",
                    "type": "uint256"
                },
                {
                    "indexed": false,
                    "internalType": "uint256",
                    "name": "stopTime",
                    "type": "uint256"
                }
            ],
            "name": "CreateStream",
            "type": "event"
        },
        {
            "anonymous": false,
            "inputs": [
                {
                    "indexed": true,
                    "internalType": "address",
                    "name": "previousOwner",
                    "type": "address"
                },
                {
                    "indexed": true,
                    "internalType": "address",
                    "name": "newOwner",
                    "type": "address"
                }
            ],
            "name": "OwnershipTransferred",
            "type": "event"
        },
        {
            "anonymous": false,
            "inputs": [
                {
                    "indexed": false,
                    "internalType": "address",
                    "name": "sender",
                    "type": "address"
                },
                {
                    "indexed": false,
                    "internalType": "uint256",
                    "name": "level",
                    "type": "uint256"
                }
            ],
            "name": "PackAdded",
            "type": "event"
        },
        {
            "anonymous": false,
            "inputs": [
                {
                    "indexed": false,
                    "internalType": "address",
                    "name": "sender",
                    "type": "address"
                },
                {
                    "indexed": false,
                    "internalType": "uint256",
                    "name": "level",
                    "type": "uint256"
                }
            ],
            "name": "PackRemoved",
            "type": "event"
        },
        {
            "anonymous": false,
            "inputs": [
                {
                    "indexed": true,
                    "internalType": "uint256",
                    "name": "streamId",
                    "type": "uint256"
                },
                {
                    "indexed": true,
                    "internalType": "address",
                    "name": "recipient",
                    "type": "address"
                },
                {
                    "indexed": false,
                    "internalType": "uint256",
                    "name": "amount",
                    "type": "uint256"
                }
            ],
            "name": "WithdrawFromStream",
            "type": "event"
        },
        {
            "inputs": [
                {
                    "internalType": "uint256",
                    "name": "level",
                    "type": "uint256"
                },
                {
                    "internalType": "uint256",
                    "name": "rate",
                    "type": "uint256"
                },
                {
                    "internalType": "uint256",
                    "name": "unitCost",
                    "type": "uint256"
                },
                {
                    "internalType": "uint256",
                    "name": "limit",
                    "type": "uint256"
                }
            ],
            "name": "addPack",
            "outputs": [],
            "stateMutability": "nonpayable",
            "type": "function"
        },
        {
            "inputs": [
                {
                    "internalType": "uint256",
                    "name": "sid",
                    "type": "uint256"
                },
                {
                    "internalType": "address",
                    "name": "who",
                    "type": "address"
                }
            ],
            "name": "balanceOf",
            "outputs": [
                {
                    "internalType": "uint256",
                    "name": "balance",
                    "type": "uint256"
                }
            ],
            "stateMutability": "view",
            "type": "function"
        },
        {
            "inputs": [
                {
                    "internalType": "uint256",
                    "name": "level",
                    "type": "uint256"
                },
                {
                    "internalType": "uint256",
                    "name": "count",
                    "type": "uint256"
                }
            ],
            "name": "buy",
            "outputs": [],
            "stateMutability": "nonpayable",
            "type": "function"
        },
        {
            "inputs": [
                {
                    "internalType": "uint256",
                    "name": "sid",
                    "type": "uint256"
                }
            ],
            "name": "cancelStream",
            "outputs": [
                {
                    "internalType": "bool",
                    "name": "",
                    "type": "bool"
                }
            ],
            "stateMutability": "nonpayable",
            "type": "function"
        },
        {
            "inputs": [
                {
                    "internalType": "uint256",
                    "name": "sid",
                    "type": "uint256"
                }
            ],
            "name": "deltaOf",
            "outputs": [
                {
                    "internalType": "uint256",
                    "name": "delta",
                    "type": "uint256"
                }
            ],
            "stateMutability": "view",
            "type": "function"
        },
        {
            "inputs": [
                {
                    "internalType": "uint256",
                    "name": "level",
                    "type": "uint256"
                }
            ],
            "name": "getPack",
            "outputs": [
                {
                    "internalType": "uint256",
                    "name": "rate",
                    "type": "uint256"
                },
                {
                    "internalType": "uint256",
                    "name": "unitCost",
                    "type": "uint256"
                },
                {
                    "internalType": "uint256",
                    "name": "deposited",
                    "type": "uint256"
                },
                {
                    "internalType": "uint256",
                    "name": "limit",
                    "type": "uint256"
                },
                {
                    "internalType": "uint256",
                    "name": "supply",
                    "type": "uint256"
                }
            ],
            "stateMutability": "view",
            "type": "function"
        },
        {
            "inputs": [
                {
                    "internalType": "uint256",
                    "name": "sid",
                    "type": "uint256"
                }
            ],
            "name": "getStream",
            "outputs": [
                {
                    "internalType": "address",
                    "name": "sender",
                    "type": "address"
                },
                {
                    "internalType": "address",
                    "name": "recipient",
                    "type": "address"
                },
                {
                    "internalType": "uint256",
                    "name": "deposit",
                    "type": "uint256"
                },
                {
                    "internalType": "address",
                    "name": "tokenAddress",
                    "type": "address"
                },
                {
                    "internalType": "uint256",
                    "name": "startTime",
                    "type": "uint256"
                },
                {
                    "internalType": "uint256",
                    "name": "stopTime",
                    "type": "uint256"
                },
                {
                    "internalType": "uint256",
                    "name": "remainingBalance",
                    "type": "uint256"
                },
                {
                    "internalType": "uint256",
                    "name": "ratePerSecond",
                    "type": "uint256"
                }
            ],
            "stateMutability": "view",
            "type": "function"
        },
        {
            "inputs": [],
            "name": "isWithdrawable",
            "outputs": [
                {
                    "internalType": "bool",
                    "name": "",
                    "type": "bool"
                }
            ],
            "stateMutability": "view",
            "type": "function"
        },
        {
            "inputs": [],
            "name": "nextStream",
            "outputs": [
                {
                    "internalType": "uint256",
                    "name": "",
                    "type": "uint256"
                }
            ],
            "stateMutability": "view",
            "type": "function"
        },
        {
            "inputs": [],
            "name": "owner",
            "outputs": [
                {
                    "internalType": "address",
                    "name": "",
                    "type": "address"
                }
            ],
            "stateMutability": "view",
            "type": "function"
        },
        {
            "inputs": [
                {
                    "internalType": "uint256",
                    "name": "level",
                    "type": "uint256"
                }
            ],
            "name": "removePack",
            "outputs": [],
            "stateMutability": "nonpayable",
            "type": "function"
        },
        {
            "inputs": [],
            "name": "renounceOwnership",
            "outputs": [],
            "stateMutability": "nonpayable",
            "type": "function"
        },
        {
            "inputs": [],
            "name": "toggleWithdrawable",
            "outputs": [],
            "stateMutability": "nonpayable",
            "type": "function"
        },
        {
            "inputs": [
                {
                    "internalType": "address",
                    "name": "newOwner",
                    "type": "address"
                }
            ],
            "name": "transferOwnership",
            "outputs": [],
            "stateMutability": "nonpayable",
            "type": "function"
        },
        {
            "inputs": [
                {
                    "internalType": "uint256",
                    "name": "sid",
                    "type": "uint256"
                },
                {
                    "internalType": "uint256",
                    "name": "amount",
                    "type": "uint256"
                }
            ],
            "name": "withdrawFromStream",
            "outputs": [
                {
                    "internalType": "bool",
                    "name": "",
                    "type": "bool"
                }
            ],
            "stateMutability": "nonpayable",
            "type": "function"
        }
    ],
    "bytecode": "60806040526001600255600380546001600160a01b03199081167381582f803a17a4a454a80600e9185b42e32e0fcf1791829055600480549091166001600160a01b039290921691909117905534801561005857600080fd5b50600160009081556100686100bb565b600180546001600160a01b0319166001600160a01b038316908117909155604051919250906000907f8be0079c531659141344cd1fd0a4f28419497f9722a3daafe3b4186f6b6457e0908290a3506100bf565b3390565b611f55806100ce6000396000f3fe608060405234801561001057600080fd5b50600436106100f55760003560e01c8063894e9a0d11610097578063d6febde811610066578063d6febde8146102dd578063e43e81df14610300578063e454e84d1461031d578063f2fde38b14610325576100f5565b8063894e9a0d146101d5578063895ec54c146102545780638da5cb5b1461029c578063a82ccd4d146102c0576100f5565b80634d840bcc116100d35780634d840bcc146101715780636db9241b1461018d578063715018a6146101aa5780637a9b2c6c146101b2576100f5565b806311b24332146100fa5780633656eec214610104578063473134aa14610142575b600080fd5b61010261034b565b005b6101306004803603604081101561011a57600080fd5b50803590602001356001600160a01b031661040b565b60408051918252519081900360200190f35b6101026004803603608081101561015857600080fd5b50803590602081013590604081013590606001356106e7565b61017961080d565b604080519115158252519081900360200190f35b610179600480360360208110156101a357600080fd5b503561081d565b610102610ced565b610179600480360360408110156101c857600080fd5b5080359060200135610d99565b6101f2600480360360208110156101eb57600080fd5b503561124c565b60405180896001600160a01b03168152602001886001600160a01b03168152602001878152602001866001600160a01b031681526020018581526020018481526020018381526020018281526020019850505050505050505060405180910390f35b6102716004803603602081101561026a57600080fd5b5035611317565b6040805195865260208601949094528484019290925260608401526080830152519081900360a00190f35b6102a46113ad565b604080516001600160a01b039092168252519081900360200190f35b610130600480360360208110156102d657600080fd5b50356113bc565b610102600480360360408110156102f357600080fd5b50803590602001356114ee565b6101026004803603602081101561031657600080fd5b50356115b9565b6101306116f2565b6101026004803603602081101561033b57600080fd5b50356001600160a01b03166116f8565b6103536117fb565b6001600160a01b03166103646113ad565b6001600160a01b0316146103ad576040805162461bcd60e51b81526020600482018190526024820152600080516020611e78833981519152604482015290519081900360640190fd5b600154600160a01b900460ff16156103f65760405162461bcd60e51b815260040180806020018281038252602e815260200180611ebb602e913960400191505060405180910390fd5b6001805460ff60a01b1916600160a01b179055565b6000828152600560205260408120600701548390600160a01b900460ff16610468576040805162461bcd60e51b81526020600482015260156024820152600080516020611df1833981519152604482015290519081900360640190fd5b610470611cc5565b50600084815260056020818152604092839020835161012081018552815481526001820154928101929092526002810154938201939093526003830154606082015260048301546080820152908201546001600160a01b0390811660a08301526006830154811660c083015260079092015491821660e0820152600160a01b90910460ff161515610100820152610505611d2e565b6000610510876113bc565b90506105208184602001516117ff565b602084018190528382600381111561053457fe5b600381111561053f57fe5b905250600090508251600381111561055357fe5b1461058f5760405162461bcd60e51b8152600401808060200182810382526023815260200180611e986023913960400191505060405180910390fd5b604083015183511115610634576105ae83600001518460400151611841565b60408401819052838260038111156105c257fe5b60038111156105cd57fe5b90525060009050825160038111156105e157fe5b146105e857fe5b6105fa82602001518360400151611841565b602084018190528382600381111561060e57fe5b600381111561061957fe5b905250600090508251600381111561062d57fe5b1461063457fe5b8260a001516001600160a01b0316866001600160a01b0316141561066057506020015192506106e09050565b8260c001516001600160a01b0316866001600160a01b031614156106d85761069083604001518360200151611841565b60608401819052838260038111156106a457fe5b60038111156106af57fe5b90525060009050825160038111156106c357fe5b146106ca57fe5b506060015192506106e09050565b600094505050505b5092915050565b6106ef6117fb565b6001600160a01b03166107006113ad565b6001600160a01b031614610749576040805162461bcd60e51b81526020600482018190526024820152600080516020611e78833981519152604482015290519081900360640190fd5b6040805160e081018252858152602080820186815282840186815260006060850181815260808601888152888b0260a08801818152600160c08a018181528f87526006808b52968c90209a518b559751908a0155945160028901559151600388015551600487015591516005860155915193909101805460ff1916931515939093179092558251338152908101879052825191927fe111c5919716ee14928601be89c6bd666939431a18bec25023065d40c0db5c4792918290030190a15050505050565b600154600160a01b900460ff1681565b600060026000541415610877576040805162461bcd60e51b815260206004820152601f60248201527f5265656e7472616e637947756172643a207265656e7472616e742063616c6c00604482015290519081900360640190fd5b60026000908155828152600560205260409020600701548290600160a01b900460ff166108d9576040805162461bcd60e51b81526020600482015260156024820152600080516020611df1833981519152604482015290519081900360640190fd5b60008381526005602052604090206006015483906001600160a01b031633148061091d5750600081815260056020819052604090912001546001600160a01b031633145b6109585760405162461bcd60e51b8152600401808060200182810382526037815260200180611ee96037913960400191505060405180910390fd5b600154600160a01b900460ff166109a9576040805162461bcd60e51b815260206004820152601060248201526f6e6f7420776974686472617761626c6560801b604482015290519081900360640190fd5b6109b1611cc5565b506000848152600560208181526040808420815161012081018352815481526001820154938101939093526002810154918301919091526003810154606083015260048101546080830152918201546001600160a01b0390811660a08301526006830154811660c0830181905260079093015490811660e0830152600160a01b900460ff1615156101008201529190610a4b90879061040b565b90506000610a5d878460a0015161040b565b600088815260056020819052604082208281556001810183905560028101839055600381018390556004810192909255810180546001600160a01b0319908116909155600682018054909116905560070180546001600160a81b031916905560e08401519091508115610ba257806001600160a01b031663a9059cbb8560a00151846040518363ffffffff1660e01b815260040180836001600160a01b0316815260200182815260200192505050602060405180830381600087803b158015610b2557600080fd5b505af1158015610b39573d6000803e3d6000fd5b505050506040513d6020811015610b4f57600080fd5b5051610ba2576040805162461bcd60e51b815260206004820181905260248201527f726563697069656e7420746f6b656e207472616e73666572206661696c757265604482015290519081900360640190fd5b8215610c8057806001600160a01b031663a9059cbb8560c00151856040518363ffffffff1660e01b815260040180836001600160a01b0316815260200182815260200192505050602060405180830381600087803b158015610c0357600080fd5b505af1158015610c17573d6000803e3d6000fd5b505050506040513d6020811015610c2d57600080fd5b5051610c80576040805162461bcd60e51b815260206004820152601d60248201527f73656e64657220746f6b656e207472616e73666572206661696c757265000000604482015290519081900360640190fd5b8360a001516001600160a01b03168460c001516001600160a01b0316897fca3e6079b726e7728802a0537949e2d1c7762304fa641fb06eb56daf2ba8c6b98686604051808381526020018281526020019250505060405180910390a4505060016000555092949350505050565b610cf56117fb565b6001600160a01b0316610d066113ad565b6001600160a01b031614610d4f576040805162461bcd60e51b81526020600482018190526024820152600080516020611e78833981519152604482015290519081900360640190fd5b6001546040516000916001600160a01b0316907f8be0079c531659141344cd1fd0a4f28419497f9722a3daafe3b4186f6b6457e0908390a3600180546001600160a01b0319169055565b600060026000541415610df3576040805162461bcd60e51b815260206004820152601f60248201527f5265656e7472616e637947756172643a207265656e7472616e742063616c6c00604482015290519081900360640190fd5b60026000908155838152600560205260409020600701548390600160a01b900460ff16610e55576040805162461bcd60e51b81526020600482015260156024820152600080516020611df1833981519152604482015290519081900360640190fd5b60008481526005602052604090206006015484906001600160a01b0316331480610e995750600081815260056020819052604090912001546001600160a01b031633145b610ed45760405162461bcd60e51b8152600401808060200182810382526037815260200180611ee96037913960400191505060405180910390fd5b600154600160a01b900460ff16610f25576040805162461bcd60e51b815260206004820152601060248201526f6e6f7420776974686472617761626c6560801b604482015290519081900360640190fd5b60008411610f6b576040805162461bcd60e51b815260206004820152600e60248201526d616d6f756e74206973207a65726f60901b604482015290519081900360640190fd5b610f73611cc5565b50600085815260056020818152604092839020835161012081018552815481526001820154928101929092526002810154938201939093526003830154606082015260048301546080820152908201546001600160a01b0390811660a08301526006830154811660c083015260079092015491821660e0820152600160a01b90910460ff161515610100820152611008611d57565b6000611018888460a0015161040b565b9050868110156110595760405162461bcd60e51b8152600401808060200182810382526024815260200180611e116024913960400191505060405180910390fd5b611067836040015188611841565b60008a81526005602052604090206002018190558382600381111561108857fe5b600381111561109357fe5b90525060009050825160038111156110a757fe5b146110ae57fe5b60008881526005602052604090206002015461112457600088815260056020819052604082208281556001810183905560028101839055600381018390556004810192909255810180546001600160a01b0319908116909155600682018054909116905560070180546001600160a81b03191690555b6004805460a08501516040805163a9059cbb60e01b81526001600160a01b0392831694810194909452602484018b90525191169163a9059cbb9160448083019260209291908290030181600087803b15801561117f57600080fd5b505af1158015611193573d6000803e3d6000fd5b505050506040513d60208110156111a957600080fd5b50516111f5576040805162461bcd60e51b8152602060048201526016602482015275746f6b656e207472616e73666572206661696c75726560501b604482015290519081900360640190fd5b8260a001516001600160a01b0316887f36c3ab437e6a424ed25dc4bfdeb62706aa06558660fab2dab229d2555adaf89c896040518082815260200191505060405180910390a3505060016000555091949350505050565b600080600080600080600080886005600082815260200190815260200160002060070160149054906101000a900460ff166112bc576040805162461bcd60e51b81526020600482015260156024820152600080516020611df1833981519152604482015290519081900360640190fd5b50505060009687525050600560208190526040909520600681015495810154815460078301546003840154600485015460028601546001909601546001600160a01b039b8c169c958c169b949a509390921697509550935090565b6000818152600660208190526040822001548190819081908190869060ff16611375576040805162461bcd60e51b81526020600482015260156024820152600080516020611df1833981519152604482015290519081900360640190fd5b505050600093845250506006602052506040902060018101546002820154600383015460048401546005909401549294919390929091565b6001546001600160a01b031690565b6000818152600560205260408120600701548290600160a01b900460ff16611419576040805162461bcd60e51b81526020600482015260156024820152600080516020611df1833981519152604482015290519081900360640190fd5b611421611cc5565b506000838152600560208181526040928390208351610120810185528154815260018201549281019290925260028101549382019390935260038301546060820181905260048401546080830152918301546001600160a01b0390811660a08301526006840154811660c083015260079093015492831660e0820152600160a01b90920460ff16151561010083015242116114c05760009250506114e8565b80608001514210156114d95760600151420391506114e8565b80606001518160800151039250505b50919050565b6114f6611d69565b506000828152600660208181526040808420815160e0810183528154815260018201549381018490526002820154928101929092526003810154606083015260048101546080830152600581015460a08301529092015460ff16151560c0830152909133916115659085611864565b9050816001600160a01b03166108fc858560400151029081150290604051600060405180830381858888f193505050501580156115a6573d6000803e3d6000fd5b506115b182826118c6565b505050505050565b60008181526006602081905260409091200154819060ff16611610576040805162461bcd60e51b81526020600482015260156024820152600080516020611df1833981519152604482015290519081900360640190fd5b6116186117fb565b6001600160a01b03166116296113ad565b6001600160a01b031614611672576040805162461bcd60e51b81526020600482018190526024820152600080516020611e78833981519152604482015290519081900360640190fd5b600082815260066020818152604080842084815560018101859055600281018590556003810185905560048101859055600581019490945592909101805460ff19169055815133815290810184905281517f5e39502bfb900f8a96e76660d03d1bcc09e725c5d626ad25a22f1b3463219e72929181900390910190a15050565b60025481565b6117006117fb565b6001600160a01b03166117116113ad565b6001600160a01b03161461175a576040805162461bcd60e51b81526020600482018190526024820152600080516020611e78833981519152604482015290519081900360640190fd5b6001600160a01b03811661179f5760405162461bcd60e51b8152600401808060200182810382526026815260200180611dcb6026913960400191505060405180910390fd5b6001546040516001600160a01b038084169216907f8be0079c531659141344cd1fd0a4f28419497f9722a3daafe3b4186f6b6457e090600090a3600180546001600160a01b0319166001600160a01b0392909216919091179055565b3390565b600080836118125750600090508061183a565b8383028385828161181f57fe5b04146118335760026000925092505061183a565b6000925090505b9250929050565b60008083831161185857506000905081830361183a565b5060039050600061183a565b600082611873575060006118c0565b8282028284828161188057fe5b04146118bd5760405162461bcd60e51b8152600401808060200182810382526021815260200180611e576021913960400191505060405180910390fd5b90505b92915050565b6000426243deff1981019062ed4e000183856118e0611da8565b6118ea8486611841565b60208301819052828260038111156118fe57fe5b600381111561190957fe5b905250600090508151600381111561191d57fe5b1461192457fe5b806020015183101561197d576040805162461bcd60e51b815260206004820152601f60248201527f6465706f73697420736d616c6c6572207468616e2074696d652064656c746100604482015290519081900360640190fd5b8060200151838161198a57fe5b06156119c75760405162461bcd60e51b8152600401808060200182810382526022815260200180611e356022913960400191505060405180910390fd5b6119d5838260200151611c74565b60408301819052828260038111156119e957fe5b60038111156119f457fe5b9052506000905081516003811115611a0857fe5b14611a0f57fe5b60006002549050604051806101200160405280858152602001836040015181526020018581526020018781526020018681526020018a6001600160a01b03168152602001336001600160a01b03168152602001600360009054906101000a90046001600160a01b03166001600160a01b031681526020016001151581525060056000838152602001908152602001600020600082015181600001556020820151816001015560408201518160020155606082015181600301556080820151816004015560a08201518160050160006101000a8154816001600160a01b0302191690836001600160a01b0316021790555060c08201518160060160006101000a8154816001600160a01b0302191690836001600160a01b0316021790555060e08201518160070160006101000a8154816001600160a01b0302191690836001600160a01b031602179055506101008201518160070160146101000a81548160ff021916908315150217905550905050611b8a6002546001611c9f565b600281905583826003811115611b9c57fe5b6003811115611ba757fe5b9052506000905082516003811115611bbb57fe5b14611c0d576040805162461bcd60e51b815260206004820181905260248201527f6e6578742073747265616d2069642063616c63756c6174696f6e206572726f72604482015290519081900360640190fd5b600354604080518681526001600160a01b03928316602082015280820189905260608101889052905191851691339184917f7b01d409597969366dc268d7f957a990d1ca3d3449baf8fb45db67351aecfe789181900360800190a498975050505050505050565b60008082611c88575060019050600061183a565b6000838581611c9357fe5b04915091509250929050565b600080838301848110611cb75760009250905061183a565b60026000925092505061183a565b604051806101200160405280600081526020016000815260200160008152602001600081526020016000815260200160006001600160a01b0316815260200160006001600160a01b0316815260200160006001600160a01b031681526020016000151581525090565b604080516080810190915280600081526020016000815260200160008152602001600081525090565b60408051602081019091526000815290565b6040518060e001604052806000815260200160008152602001600081526020016000815260200160008152602001600081526020016000151581525090565b604080516060810190915280600081526020016000815260200160008152509056fe4f776e61626c653a206e6577206f776e657220697320746865207a65726f206164647265737373747265616d20646f6573206e6f742065786973740000000000000000000000616d6f756e7420657863656564732074686520617661696c61626c652062616c616e63656465706f736974206e6f74206d756c7469706c65206f662074696d652064656c7461536166654d6174683a206d756c7469706c69636174696f6e206f766572666c6f774f776e61626c653a2063616c6c6572206973206e6f7420746865206f776e6572726563697069656e742062616c616e63652063616c63756c6174696f6e206572726f727475726e4f6e5769746864726177616c733a207769746864726177616c7320616c726561647920656e61626c656463616c6c6572206973206e6f74207468652073656e646572206f722074686520726563697069656e74206f66207468652073747265616da26469706673582212205a295e1b07949e7fb419f913cbeb5570022818278de5267600dcb2cd95b8120564736f6c634300060c0033",
    "sourcePath": "/Users/unico/Documents/GitHub/soulswap/launch-contracts/contracts/SoulStream.sol",
    "compiler": {
        "name": "solc",
        "version": "0.6.12+commit.27d51765"
    },
    "functionHashes": {
        "addPack(uint256,uint256,uint256,uint256)": "473134aa",
        "balanceOf(uint256,address)": "3656eec2",
        "buy(uint256,uint256)": "d6febde8",
        "cancelStream(uint256)": "6db9241b",
        "deltaOf(uint256)": "a82ccd4d",
        "getPack(uint256)": "895ec54c",
        "getStream(uint256)": "894e9a0d",
        "isWithdrawable()": "4d840bcc",
        "nextStream()": "e454e84d",
        "owner()": "8da5cb5b",
        "removePack(uint256)": "e43e81df",
        "renounceOwnership()": "715018a6",
        "toggleWithdrawable()": "11b24332",
        "transferOwnership(address)": "f2fde38b",
        "withdrawFromStream(uint256,uint256)": "7a9b2c6c"
    },
    "gasEstimates": {
        "creation": {
            "codeDepositCost": "1604200",
            "executionCost": "105844",
            "totalCost": "1710044"
        },
        "external": {
            "addPack(uint256,uint256,uint256,uint256)": "infinite",
            "balanceOf(uint256,address)": "infinite",
            "buy(uint256,uint256)": "infinite",
            "cancelStream(uint256)": "infinite",
            "deltaOf(uint256)": "infinite",
            "getPack(uint256)": "infinite",
            "getStream(uint256)": "infinite",
            "isWithdrawable()": "1050",
            "nextStream()": "1064",
            "owner()": "1104",
            "removePack(uint256)": "infinite",
            "renounceOwnership()": "infinite",
            "toggleWithdrawable()": "infinite",
            "transferOwnership(address)": "infinite",
            "withdrawFromStream(uint256,uint256)": "infinite"
        },
        "internal": {
            "_createStream(address,uint256)": "infinite"
        }
    }
}